:100000000C94E9000C9411010C9411010C94110151
:100010000C9411010C9411010C9411010C94110118
:100020000C9411010C9411010C94E8070C945A08DB
:100030000C9411010C9411010C9411010C941101F8
:100040000C9411010C9411010C9411010C941101E8
:100050000C9411010C9411010C9411010C94DA0B05
:100060000C9411010C9411010C9411010C941101C8
:100070000C9411010C9411010C9411010C941101B8
:100080000C9411010C9411010C9411010C941101A8
:100090000C9411010C9411010C9411010C94110198
:1000A0000C9411010C9411010C941101B40AB70ABB
:1000B000A60AAA0AAE0AD80AD80AD80ABB0ABF0AF0
:1000C000C30AC90ACD0AD80AD30A000000002300D7
:1000D000260029002C002F000000000200090F005C
:1000E00000030401000C00000000000000000000FC
:1000F00000000000000000080B00020202010009DD
:100100000400000102020000052400100105240182
:1001100001010424020605240600010705810310DD
:10012000004009040100020A000000070502024025
:1001300000000705830240000004030904120100C7
:1001400002EF020140412337800001010203014117
:10015000726475696E6F204C4C430041726475691E
:100160006E6F204D6963726F000706050401000879
:100170000A0B0C0D0900000000250028002B002EA2
:1001800000310000000000240027002A002D00306C
:10019000000404040404030405020202020403022E
:1001A000020202060606060606040402020204040F
:1001B0000408020110408040102040804080080266
:1001C00004018040201002011080102040402000D7
:1001D000011A11241FBECFEFDAE0DEBFCDBF11E060
:1001E000A0E0B1E0E0E4FCE302C005900D92AA3B80
:1001F000B107D9F723E0AAEBB1E001C01D92A937FE
:10020000B207E1F710E0C9EED0E004C02197FE018B
:100210000E94F81DC83ED107C9F70E94241A0C9409
:100220001E1E0C94000080E991E008953E9A089506
:1002300080E090E00895FC01858596850895CF9330
:10024000DF9300D000D000D0CDB7DEB7AB011C8269
:100250001D821E82DC01ED91FC910190F081E02D68
:1002600019821A821B829E012F5F3F4FBE016C5F75
:100270007F4F099526960FB6F894DEBF0FBECDBF0F
:10028000DF91CF9108954F925F926F927F928F92FC
:100290009F92BF92CF92DF92EF92FF921F93CF93E4
:1002A000DF933C01EB010F960E94710CF894E881FA
:1002B000F98178B1706488B18F7B88B9CA849F81D5
:1002C0002C2D291B922F2F83BF844A805B80FD84B5
:1002D000EC84DE84F394E394D3943E81488599843E
:1002E0008B841181D20120E0522F622F618111276E
:1002F00088946111690F08F46FEF91958894F0FC70
:10030000160F17958894F1FC160F17958894F2FC38
:10031000160F17958894F3FC160F17958894F4FC24
:10032000160F17958894F5FC160F17958894F6FC10
:10033000160F17958894F7FC160F17958894262F9B
:10034000F110212F9C0D122F002C78B900C017FF3F
:1003500088B960812227889400C000C0002C88B929
:100360006111630F00C0002C78B900C016FF88B976
:1003700008F46FEF3195889400C000C0002C88B954
:10038000E0FC260F00C0002C78B900C015FF88B92A
:1003900027958894E1FC260F00C000C0002C88B986
:1003A0002795889400C0002C78B900C014FF88B944
:1003B000E2FC260F2795889400C000C0002C88B965
:1003C000E3FC260F00C0002C78B900C013FF88B9E9
:1003D00027958894E4FC260F00C000C0002C88B943
:1003E0002795889400C0002C78B900C012FF88B906
:1003F000E5FC260F2795889400C000C0002C88B922
:10040000E6FC260F00C0002C78B900C011FF88B9A7
:1004100027958894E7FC260F00C000C0002C88B9FF
:100420002795889400C0002C78B900C010FF88B9C7
:10043000162FE110122F390D00C000C0002C88B912
:1004400000C000C0002C78B900C017FF88B96281D5
:100450002227889400C000C0002C88B96111640F65
:1004600000C0002C78B900C016FF88B908F46FEFFF
:10047000EB0DF11D00C000C0002C88B9D0FC260F88
:1004800000C0002C78B900C015FF88B92795889462
:10049000D1FC260F00C000C0002C88B92795889495
:1004A00000C0002C78B900C014FF88B9D2FC260F18
:1004B0002795889400C000C0002C88B9D3FC260F73
:1004C00000C0002C78B900C013FF88B92795889424
:1004D000D4FC260F00C000C0002C88B92795889452
:1004E00000C0002C78B900C012FF88B9D5FC260FD7
:1004F0002795889400C000C0002C88B9D6FC260F30
:1005000000C0002C78B900C011FF88B927958894E5
:10051000D7FC260F00C000C0002C88B9279588940E
:1005200000C0002C78B900C010FF88B9162FD11078
:10053000122F419500C000C0002C88B9480D00C0A2
:1005400000C078B900C017FF88B96181222788945C
:1005500000C000C0002C88B96111690F00C0002CD8
:1005600078B900C016FF88B908F46FEF91958894A8
:1005700000C000C0002C88B9F0FC260F00C0002C81
:1005800078B900C015FF88B927958894F1FC260F2B
:1005900000C000C0002C88B92795889400C0002CAA
:1005A00078B900C014FF88B9F2FC260F279588940B
:1005B00000C000C0002C88B9F3FC260F00C0002C3E
:1005C00078B900C013FF88B927958894F4FC260FEA
:1005D00000C000C0002C88B92795889400C0002C6A
:1005E00078B900C012FF88B9F5FC260F27958894CA
:1005F00000C000C0002C88B9F6FC260F00C0002CFB
:1006000078B900C011FF88B927958894F7FC260FA8
:1006100000C000C0002C88B92795889400C0002C29
:1006200078B900C010FF88B9162FF110122F9C0D59
:1006300000C000C0002C88B9119709F086CE20EECA
:1006400031E0D2010E94FE1DDC01CB01F4E0B69541
:10065000A79597958795FA95D1F720E030E0A90105
:100660006AE9469E040C411D569E400D511D112401
:10067000450D511D840F951FA11DB11D893E43E0FD
:100680009407A105B10508F434C0885E9340A10920
:10069000B10942E0B695A795979587954A95D1F708
:1006A00047E0849F080E211D949F200D311D1124C9
:1006B000290F311D6091780370E0860F971F820F1C
:1006C000931F4091C3015091C4016091C501709185
:1006D000C601292F3327420F531F611D711D4093FF
:1006E000C3015093C4016093C5017093C601809308
:1006F000780378940E94EA0AF301708B6787DF9190
:10070000CF911F91FF90EF90DF90CF90BF909F907F
:100710008F907F906F905F904F9008950F931F93ED
:10072000CF93DF93CDB7DEB762970FB6F894DEBFF5
:100730000FBECDBF8C01F901DC011C968C917A8330
:1007400069835C834B835E834D8390819D87918118
:100750009E8792819F87813029F4CE0101960E9465
:10076000240C06C01C861B861A86198618861F82D2
:1007700083E0888B1A8A198AD801ED91FC91048450
:10078000F585E02DBE016F5F7F4FC8010995629628
:100790000FB6F894DEBF0FBECDBFDF91CF911F9192
:1007A0000F9108950F931F93CF93DF93CDB7DEB7CB
:1007B00062970FB6F894DEBF0FBECDBF8C01F90172
:1007C000DC011C968C917A8369835C834B835E8306
:1007D0004D8390819D8791819E8792819F878130F3
:1007E00029F4CE0101960E94240C06C01C861B86AB
:1007F0001A86198618861F82188A1A8A198AD801B9
:10080000ED91FC910484F585E02DBE016F5F7F4F73
:10081000C801099562960FB6F894DEBF0FBECDBF32
:10082000DF91CF911F910F9108952BED31E046E0BC
:1008300080E090E0F901E80FF91F10821182128226
:10084000039685319105B1F741502B5E3F4F411121
:10085000EFCF80915D020E94060D6CE271E080E0B6
:1008600090E00C940F0BFC0184E191E09183808374
:10087000138212828FEF86838783808781878287A6
:10088000838781E08487168615861582148280917D
:100890005B0290915C02892B21F4F0935C02E0935F
:1008A0005B02A091C101B091C201109721F0159691
:1008B000FC93EE931497F093C201E093C10184E29C
:1008C00091E09183808308952F923F924F925F929F
:1008D0006F927F928F929F92AF92BF92CF92DF9250
:1008E000EF92FF920F931F93CF93DF9300D000D02E
:1008F000CDB7DEB7282E8EEB91E0F3E03F2E380E19
:100900000EEB11E0812C912C540183E0482E512CE8
:10091000612C712C8091BA019091BB01A091BC0116
:10092000B091BD01880E991EAA1EBB1E840D951D97
:10093000A61DB71D0196A11DB11D88169906AA0610
:10094000BB06DCF49C01AD01281939094A095B0991
:1009500069F029833A834B835C830E94631D29815C
:100960003A814B815C810E94711D03C060E070E0A0
:10097000CB01860E971EA81EB91EC090BA01D0905A
:10098000BB01E090BC01F090BD01C501B4016C0D4C
:100990007D1D8E1D9F1D26E030E040E050E00E944E
:1009A000711DD8016D938D014B015C01BFEF8B1A56
:1009B0009B0AAB0ABB0AEFEF4E1A5E0A6E0A7E0A6A
:1009C000F6E04F1651046104710409F0A3CFD7017A
:1009D000C6010196A11DB11D8093BA019093BB0180
:1009E000A093BC01B093BD0121E0221699F122161B
:1009F00008F444C09091DA012091D8013091D901D6
:100A000082E0281699F0A3E02A12FAC07091BE0184
:100A10004091D5015091D6016091D701EBEDEE2EBA
:100A2000E1E0FE2EE2EFF1E080E0CFC07091D50171
:100A3000D090D6011091D701ABEDB1E04CEDE42E92
:100A400041E0F42E4DED51E00091BE016091BF01F7
:100A500080E094C05091D8016091D9017091DA0181
:100A6000D090D5011091D6010091D7013BEDE32E36
:100A700031E0F32EEDEDF1E040E06BC09BEDA92EEF
:100A800091E0B92E0DED11E0F12C25E1922E90911F
:100A9000BE018091D601F9122FC0F50194819813FF
:100AA0001EC0E091BE01FE120BC00E94631D25E036
:100AB00030E040E050E00E94711D6093BE01F1CF34
:100AC0008091D8019091D9019E9EF0011124E552A8
:100AD000FE4F2091DA0120839183828318C0809198
:100AE000D8019091D9012091DA012083F801319742
:100AF0009083F80180830BC09091D5012091D7019C
:100B0000D5012C93F80131978083F8019083F394F9
:100B1000F5E1AF0EB11C0B5E1F4F26E0F212B7CF0E
:100B20006FC07C93D9016C935083381651F0DC016F
:100B3000BD90CD01D7014B11F4CF0C93D9011C937B
:100B4000D0824F5FB5E1EB0EF11C7596463009F48B
:100B500057C08EEB91E09F0121503109E8CF1C93E3
:100B6000F701D082FA0170838F5F5596F5E1EF0EA1
:100B7000F11C4B5E5F4F863009F442C0801779F359
:100B80009C93F7013083FA012083861741F39C93ED
:100B9000F7013083FA012083E7CF8F010451110957
:100BA000D8011C91191314C08F0102501109D801EA
:100BB0006C930F5F1F4FD8015C9340838F5FB5E14B
:100BC000EB0EF11C75968630D9F087130DC0E5CF7A
:100BD000D7016C938F0106511109D8015C930F5F07
:100BE0001F4FD8014C93EACFD7019C938F01065138
:100BF0001109D8013C930F5F1F4FD8012C93DECF12
:100C00004091DA015091D9016091D80180E090E0E3
:100C100020E030E0FC01E552FE4F7081741307C004
:100C20007181751304C07281761301C02F5F263065
:100C300009F431E045968E37910561F7311160CEA8
:100C40000F900F900F900F90DF91CF911F910F9108
:100C5000FF90EF90DF90CF90BF90AF909F908F90DC
:100C60007F906F905F904F903F902F9008951F93CB
:100C7000CF93DF93C3E0D0E01FEF0E9415042BED6C
:100C800031E046E080E090E0F901E80FF91F1083C1
:100C900011821282039685319105B1F741502B5E86
:100CA0003F4F4111EFCF80915D020E94060D64EF2E
:100CB00071E080E090E00E940F0B0E9415042197E4
:100CC000E1F6DF91CF911F9108954091CF015091AE
:100CD000D0012091CD013091CE0142175307B4F4D9
:100CE0009091E8009570E1F39091E80092FD19C0B1
:100CF0008093F1008091CF019091D00101968F7384
:100D00009927892B19F48EEF8093E8008091CF0109
:100D10009091D00101969093D0018093CF0181E012
:100D2000089580E00895CF92DF92EF92FF920F93A3
:100D30001F93CF93DF931F92CDB7DEB7182F062FE7
:100D4000E42E862F880F8E5F99830E94650683E0CC
:100D50000E946506F12EC12E9981D92E8C2D8F19F6
:100D6000801798F4F601E7FE02C0849101C08081EB
:100D70000E946506182F80E00E9465068123FFEF20
:100D8000CF1ADF0A8111EACF01C081E00F90DF9115
:100D9000CF911F910F91FF90EF90DF90CF9008952A
:100DA000DF92EF92FF920F931F93CF93DF93D82E92
:100DB0008A017B01E40EF51EEB01CE15DF0571F013
:100DC000D7FE03C0FE01849101C088810E946506A0
:100DD00021968111F2CF8FEF9FEF01C0C801DF9103
:100DE000CF911F910F91FF90EF90DF900895615088
:100DF00030F02091F100FC0120830196F8CF289A71
:100E000084E6809359020895CF92DF92EF92FF9289
:100E10000F931F93CF93DF936C017A018B01C0E096
:100E2000D0E0CE15DF0589F0D8016D918D01D60196
:100E3000ED91FC910190F081E02DC6010995892B7F
:100E400011F47E0102C02196ECCFC701DF91CF9152
:100E50001F910F91FF90EF90DF90CF900895CF9367
:100E6000DF931F92CDB7DEB76983DC01ED91FC9172
:100E70000280F381E02D41E050E0BE016F5F7F4FC3
:100E800009950F90DF91CF91089583E08093E90059
:100E90008091F200882319F08AE38093E800089596
:100EA000FC018485958597FD0BC09FB7F89482E07F
:100EB0008093E9008091F2009FBF90E00196089531
:100EC0009FB7F89482E08093E9008091F2009FBF81
:100ED00090E00895089580E090E008950E94191E22
:100EE0000F931F93CF93DF931F92CDB7DEB782E0AE
:100EF000898342E450E067EF70E080E80E94D0060A
:100F00000E945D0EDC0112960D911C911397011544
:100F1000110569F0D801ED91FC910280F381E02D7B
:100F2000BE016F5F7F4FC801099597FF07C0898198
:100F30000F90DF91CF911F910F910895F8010085D7
:100F40001185E5CF0E944C0E90E00895CF93DF937A
:100F50001F92CDB7DEB7FC018485958597FD05C04E
:100F60002FEF3FEF358724870BC0CE0101960E94FB
:100F7000220E019719F4898190E002C08FEF9FEF54
:100F80000F90DF91CF9108950F931F93CF93DF932D
:100F90001F92CDB7DEB78C01FC018485958597FF44
:100FA0000EC0CE0101960E94220E019719F42981EC
:100FB00030E002C02FEF3FEFF80135872487F801BA
:100FC000848595850F90DF91CF911F910F910895A2
:100FD0001F920F920FB60F9211248F939F938091BF
:100FE000E1009091E100937F9093E10083FF0FC0B7
:100FF0001092E90091E09093EB001092EC0092E3E4
:101000009093ED0010925A0298E09093F00082FFC6
:1010100020C093E09093E9009091F200992319F099
:101020009AE39093E8009091D101992339F090913F
:10103000D10191509093D101992389F19091590256
:10104000992339F090915902915090935902992324
:1010500041F184FF10C08091E2008E7E8160809318
:10106000E2008091E1008F7E8093E1008091D301C6
:101070008E7E806111C080FF16C08091E2008E7E5E
:1010800080618093E2008091E1008E7E8093E10098
:101090008091D3018E7E81608093D30104C05D98DE
:1010A000CDCF2898D6CF9F918F910F900FBE0F90E4
:1010B0001F9018951F920F920FB60F921124CF9286
:1010C000DF92EF92FF920F931F932F933F934F93D3
:1010D0005F936F937F938F939F93AF93BF93EF93A0
:1010E000FF93CF93DF93CDB7DEB76C97DEBFCDBF55
:1010F0001092E9008091E80083FFEDC168E0CE0125
:1011000045960E94F70682EF8093E8008D8987FF5D
:1011100005C09091E80090FFFCCF03C09EEF909334
:10112000E800982F907609F0C6C09E892F89188D07
:1011300091110CC0803829F48091D4018093F10082
:1011400002C01092F1001092F10048C1422F50E00D
:10115000512B913051F4811141C14130510509F0B9
:101160003DC18091D4018D7F0BC0933061F481111A
:1011700035C14130510509F031C18091D4018260FF
:101180008093D4012BC1953041F48091E80080FF19
:10119000FCCF20682093E30021C1963009F05FC0A6
:1011A000EB8CFC8C1092E9001092D0011092CF01D0
:1011B000123091F51092CE011092CD010E9470076D
:1011C00099E0BE016F5F7F4FDB01E92F1D92EA9529
:1011D000E9F799831A8391E09E8390EA98879AEFC2
:1011E00099872091CF013091D001275F3F4F3C83F9
:1011F0002B838D831092E9001092D0011092CF01C1
:10120000F092CE01E092CD0149E050E080E00E94F2
:10121000D0060E947007E2C0F092CE01E092CD01AC
:101220000E945D0EDC011296ED90FC901397E11484
:10123000F10409F4C0C0D701ED91FC910480F5815F
:10124000E02DBE016B5E7F4FC7010995009719F035
:101250000CF0C4C0C7C0F701E084F184E8CF973038
:1012600009F4C0C0983021F481E08093F100B6C049
:10127000993009F0B3C0837009F0B4C0E3E3F1E042
:1012800081E021E036E39081992361F08093E900C9
:101290002093EB0091919093EC003093ED008F5FE1
:1012A000873089F78EE78093EA001092EA008F89F1
:1012B00080935A0293C08B8D9C8D1092E9001092FE
:1012C000D0011092CF019093CE018093CD01898DF2
:1012D000811156C08E899D89913A59F4813209F065
:1012E00081C047E050E064E071E080E00E94D006F9
:1012F00075C0913209F076C0833289F4888D90E010
:10130000982F88272F89822BA0E0B0E080930001DE
:1013100090930101A0930201B09303015FC080325A
:1013200069F48091E80082FFFCCF67E084E091E0FF
:101330000E94F7068BEF8093E80006C0823209F026
:101340004DC08F8980930B018091D201882319F0C1
:10135000EEEFFAE002C0E0E0F8E080910401909145
:101360000501A0910601B0910701803B9440A105C1
:10137000B10509F07BC080910B0180FF93C076C05E
:101380000E945D0EDC0112960D911C9113970115C0
:10139000110541F1D801ED91FC910190F081E02D12
:1013A000BE016B5E7F4FC8010995811117C0F8011E
:1013B00000851185ECCF113009F44EC0133091F443
:1013C0008F89882309F445C0823081F440E86DE0BC
:1013D0008BE591E00E949306882321F08EEF8093A5
:1013E000E80079C081E28093EB0075C0813029F478
:1013F00040E86BE08FE491E0EDCF833099F70E94F5
:101400005D0EDC011296ED90FC9013978E010F5F3C
:101410001F4F6801E114F10479F0D701ED91FC91BF
:101420000680F781E02DB801C7010995080F111D4D
:10143000F701E084F184EECFD8011C92F60101900F
:101440000020E9F73197BF016C197D0940E0C60122
:10145000C1CF69E371E002C06DE371E06115710510
:1014600009F2FB01449150E080E840CF0FB6F894B8
:10147000A895809160008861809360001092600060
:101480000FBEA895EE3F2AE0F20739F08091FE0AE0
:101490009091FF0A91838083A1CF1092FF0A10924E
:1014A000FE0A9CCFEE3F8AE0F80731F080819181FF
:1014B0009093FF0A8093FE0A87E797E791838083E2
:1014C0009BE088E10FB6F894A895809360000FBE6A
:1014D0009093600083CF6C960FB6F894DEBF0FBE7A
:1014E000CDBFDF91CF91FF91EF91BF91AF919F91D0
:1014F0008F917F916F915F914F913F912F911F91AC
:101500000F91FF90EF90DF90CF900F900FBE0F9054
:101510001F90189590E0FC01E852FF4F4491FC01A8
:10152000E055FE4F2491FC01EF56FE4F8491882335
:1015300009F44DC04423E1F150E0FA013197EF3056
:10154000F105B0F5EA5AFF4F0C94F81D9091800018
:101550009F7707C0909180009F7D03C0909180008D
:10156000977F9093800024C094B59F7702C094B574
:101570009F7D94BD1DC0909190009F7707C0909172
:1015800090009F7D03C090919000977F9093900072
:101590000FC09091C0009F7703C09091C0009F7DC5
:1015A0009093C00005C09091C200977F9093C200B5
:1015B000E82FF0E0EE0FFF1FE653FF4FA591B49127
:1015C000EC912E2381E090E021F480E0089580E00A
:1015D00090E008953FB7F8948091C9019091CA01B5
:1015E000A091CB01B091CC0126B5A89B05C02F3F9F
:1015F00019F00196A11DB11D3FBFBA2FA92F982F39
:101600008827820F911DA11DB11DBC01CD0142E0B3
:10161000660F771F881F991F4A95D1F708958F92FB
:101620009F92AF92BF92CF92DF92EF92FF926B01A7
:101630007C010E94EA0A4B015C01C114D104E1045F
:10164000F104F1F00E94EA0ADC01CB018819990942
:10165000AA09BB09883E9340A105B10570F321E0BA
:10166000C21AD108E108F10888EE880E83E0981EBE
:10167000A11CB11CC114D104E104F10419F7DDCFA0
:10168000FF90EF90DF90CF90BF90AF909F908F90A2
:1016900008958F929F92AF92BF92CF92DF92EF9276
:1016A000FF920F931F93CF93DF935C016B017A013D
:1016B00080910B01882309F45BC080915A02882332
:1016C00009F456C08091D30180FF05C08091E000ED
:1016D00082608093E000E70110E00AEF83E0882E4B
:1016E0009AE3992E2097D9F10E944C0E81110AC0DD
:1016F000015009F43DC061E070E080E090E00E949C
:101700000F0BF0CF282F30E0C217D3070CF48C2F2B
:101710004FB7F8948092E9009091E80095FF1DC0C2
:10172000282F30E0C21BD30BF601982F915020F0E8
:1017300081918093F100FACFC20ED31E112319F0CC
:101740009092E80009C08091E80085FD06C0909263
:10175000E80011E0209709F010E04FBFC3CF11114E
:10176000C3CF5D9A84E68093D1011E141F0444F018
:1017700081E090E0F5019383828380E090E001C0F6
:10178000C701DF91CF911F910F91FF90EF90DF90F4
:10179000CF90BF90AF909F908F9008952FB7F894FF
:1017A0006091C3017091C4018091C5019091C601FF
:1017B0002FBF08951F920F920FB60F9211242F93EF
:1017C0003F938F939F93AF93BF938091C301909169
:1017D000C401A091C501B091C6013091C80123E0B8
:1017E000230F2D3720F40196A11DB11D05C026E859
:1017F000230F0296A11DB11D2093C8018093C30140
:101800009093C401A093C501B093C6018091C90112
:101810009091CA01A091CB01B091CC010196A11D7C
:10182000B11D8093C9019093CA01A093CB01B093DD
:10183000CC01BF91AF919F918F913F912F910F90CC
:101840000FBE0F901F901895EF92FF920F931F936A
:10185000CF93DF93EC019091C7019F5F292F2770F1
:101860002093C70190FF02C090E801C090E021FDE5
:101870009064247009F0906220E1290FFE013C96EB
:101880007E018FE0E80EF11C00E011E0619166231B
:1018900031F070E0C8010E94E41D6F5F01C060E09C
:1018A000DF0114976C93322F369F030E30E0311D09
:1018B0001124CF010797311103C0EC01188203C036
:1018C0003150EC013883662311F061506C93EE15B2
:1018D000FF05E1F6DF91CF911F910F91FF90EF90FF
:1018E0000895CF93DF93EC010E94EA0A28813981A1
:1018F000621B730B6A307105B8F3DF91CF910895C5
:10190000CF93DF9390E0FC01E055FE4F2491FC0162
:10191000EF56FE4F84918823C1F090E0880F991F05
:10192000FC01ED57FE4FC591D491FC01EB58FE4FE1
:10193000A591B4919FB7F8948881E22FE0958E230A
:1019400088838C91E823EC939FBFDF91CF9108951A
:101950000F931F93CF93DF93EC018B01E881F98103
:101960000480F581E02D09951B830A8387E090E0D0
:101970009E878D87E881F9810284F385E02DCE0171
:101980000995009729F19C0140E050E060E472E481
:101990008FE090E00E94711D722F632F0091600212
:1019A000109161022091620230916302872F962F7D
:1019B000DA0180179107A207B30710F4D901C80113
:1019C0008093600290936102A0936202B0936302DD
:1019D000CE01DF91CF911F910F910895BC01009727
:1019E00091F0FC0101900020E9F73197AF01481B0D
:1019F000590BE0912803F09129030280F381E02D37
:101A000088E293E0099480E090E008953F924F923D
:101A10005F926F927F928F929F92AF92BF92CF927E
:101A2000DF92EF92FF920F931F93CF93DF9300D03B
:101A30001F92CDB7DEB7F82E8091600290916102BF
:101A4000A0916202B0916302892B8A2B8B2BE9F063
:101A50000E94EA0A00912403109125032091260395
:101A600030912703DC01CB01801B910BA20BB30B40
:101A70000091600210916102209162023091630234
:101A800080179107A207B307B8F20E94EA0A609391
:101A90002403709325038093260390932703E091FA
:101AA0006802F0916902309759F0409164025091B8
:101AB000650260916602709167028F2D0995F82E7C
:101AC00000915B0210915C024F2C512C612C712C07
:101AD0000115110509F461C0D8011C96EC901C9702
:101AE00080915E0290915F028436910510F41C96FD
:101AF0001C92D801ED91FC91A280B38019821A82C8
:101B00001B82F11014C0F8014585568562817381EE
:101B10009E012F5F3F4FC801F5010995D8011C9622
:101B2000EC921C9714960D911C911597D1CFF8014A
:101B30003996CE0101966C0148019CE0890E911CFA
:101B4000DF0113973C902191332001F12223F1F022
:101B5000822F90E0A0E0B0E09C01AD012F5F3F4FED
:101B60004F4F5F4FC301B2010E94D41D9B01AC01D6
:101B7000832D90E0A0E0B0E0BC01CD016F5F7F4F0E
:101B80008F4F9F4F0E94D41DD6018C93BFEFCB1A6D
:101B9000DB0AE815F905A1F6B6CF809122039091F2
:101BA00023038C010F5F1F4F109323030093220325
:101BB00049979CF10E94CE0B4B015C0188EE93E0AB
:101BC000089FB001099F700D189F700D1124072EFA
:101BD000000C880B990BC0901E03D0901F03E0905F
:101BE0002003F0902103A50194012C193D094E0911
:101BF0005F090E94A31D30935F0220935E02109242
:101C00002303109222030E94CE0B60931E03709355
:101C10001F0380932003909321030F900F900F9048
:101C2000DF91CF911F910F91FF90EF90DF90CF90B8
:101C3000BF90AF909F908F907F906F905F904F90EC
:101C40003F900895FC0180915A02811103C08FEFEB
:101C50009FEF08959FB7F89482E08093E900209168
:101C6000F20030E01216130614F421E030E02115E2
:101C7000310559F0289A84E6809359028091F10049
:101C800080838091F200882319F09FBFC9010895D5
:101C90008BE68093E800F9CF2FB7F89483E0809328
:101CA000E9009091E800892F807295FF04C090911F
:101CB000F20080E4891B2FBF0895809116038111E3
:101CC0000DC082E08093120384E08093130310928E
:101CD00015031092140381E08093160382E193E0D0
:101CE000089580E991E00895259A08954F925F92B2
:101CF0006F927F928F929F92BF92CF92DF92EF92DC
:101D0000FF921F93CF93DF933C01EB010F960E944C
:101D1000710CF894E881F98175B1706285B18F7D9D
:101D200085B9CA849F812C2D291B922F2F83BF84B4
:101D30004A805B80FD84EC84DE84F394E394D39446
:101D40003E81488599848B841181D20120E0522FF5
:101D5000622F6181112788946111690F08F46FEF78
:101D600091958894F0FC160F17958894F1FC160F46
:101D700017958894F2FC160F17958894F3FC160FAC
:101D800017958894F4FC160F17958894F5FC160F98
:101D900017958894F6FC160F17958894F7FC160F84
:101DA00017958894262FF110212F9C0D122F002CAF
:101DB00075B900C017FF85B960812227889400C0DB
:101DC00000C0002C85B96111630F00C0002C75B9EB
:101DD00000C016FF85B908F46FEF3195889400C0F4
:101DE00000C0002C85B9E0FC260F00C0002C75B99E
:101DF00000C015FF85B927958894E1FC260F00C027
:101E000000C0002C85B92795889400C0002C75B9B6
:101E100000C014FF85B9E2FC260F2795889400C006
:101E200000C0002C85B9E3FC260F00C0002C75B95A
:101E300000C013FF85B927958894E4FC260F00C0E5
:101E400000C0002C85B92795889400C0002C75B976
:101E500000C012FF85B9E5FC260F2795889400C0C5
:101E600000C0002C85B9E6FC260F00C0002C75B917
:101E700000C011FF85B927958894E7FC260F00C0A4
:101E800000C0002C85B92795889400C0002C75B936
:101E900000C010FF85B9162FE110122F390D00C0B8
:101EA00000C0002C85B900C000C0002C75B900C06E
:101EB00017FF85B962812227889400C000C0002CDA
:101EC00085B96111640F00C0002C75B900C016FF00
:101ED00085B908F46FEFEB0DF11D00C000C0002CB8
:101EE00085B9D0FC260F00C0002C75B900C015FFC5
:101EF00085B927958894D1FC260F00C000C0002C1E
:101F000085B92795889400C0002C75B900C014FFCE
:101F100085B9D2FC260F2795889400C000C0002CFC
:101F200085B9D3FC260F00C0002C75B900C013FF83
:101F300085B927958894D4FC260F00C000C0002CDA
:101F400085B92795889400C0002C75B900C012FF90
:101F500085B9D5FC260F2795889400C000C0002CB9
:101F600085B9D6FC260F00C0002C75B900C011FF42
:101F700085B927958894D7FC260F00C000C0002C97
:101F800085B92795889400C0002C75B900C010FF52
:101F900085B9162FD110122F419500C000C0002C1A
:101FA00085B9480D00C000C075B900C017FF85B9DC
:101FB00061812227889400C000C0002C85B961117E
:101FC000690F00C0002C75B900C016FF85B908F470
:101FD0006FEF9195889400C000C0002C85B9F0FC8B
:101FE000260F00C0002C75B900C015FF85B92795D4
:101FF0008894F1FC260F00C000C0002C85B92795FD
:10200000889400C0002C75B900C014FF85B9F2FC9B
:10201000260F2795889400C000C0002C85B9F3FCDA
:10202000260F00C0002C75B900C013FF85B9279595
:102030008894F4FC260F00C000C0002C85B92795B9
:10204000889400C0002C75B900C012FF85B9F5FC5A
:10205000260F2795889400C000C0002C85B9F6FC97
:10206000260F00C0002C75B900C011FF85B9279557
:102070008894F7FC260F00C000C0002C85B9279576
:10208000889400C0002C75B900C010FF85B9162FC8
:10209000F110122F9C0D00C000C0002C85B91197C3
:1020A00009F086CE20EE31E0D2010E94FE1DDC0157
:1020B000CB01F4E0B695A79597958795FA95D1F75A
:1020C00020E030E0A9016AE9469E040C411D569EBD
:1020D000400D511D1124450D511D840F951FA11D4B
:1020E000B11D893E43E09407A105B10508F434C051
:1020F000885E9340A109B10942E0B695A7959795EE
:1021000087954A95D1F747E0849F080E211D949F3B
:10211000200D311D1124290F311D6091780370E0CD
:10212000860F971F820F931F4091C3015091C401E6
:102130006091C5017091C601292F3327420F531FAB
:10214000611D711D4093C3015093C4016093C5018B
:102150007093C6018093780378940E94EA0AF30191
:10216000708B6787DF91CF911F91FF90EF90DF9089
:10217000CF90BF909F908F907F906F905F904F9087
:10218000089580E991E00895249A08954F925F920E
:102190006F927F928F929F92BF92CF92DF92EF9237
:1021A000FF921F93CF93DF933C01EB010F960E94A8
:1021B000710CF894E881F98175B1706185B18F7EF9
:1021C00085B9CA849F812C2D291B922F2F83BF8410
:1021D0004A805B80FD84EC84DE84F394E394D394A2
:1021E0003E81488599848B841181D20120E0522F51
:1021F000622F6181112788946111690F08F46FEFD4
:1022000091958894F0FC160F17958894F1FC160FA1
:1022100017958894F2FC160F17958894F3FC160F07
:1022200017958894F4FC160F17958894F5FC160FF3
:1022300017958894F6FC160F17958894F7FC160FDF
:1022400017958894262FF110212F9C0D122F002C0A
:1022500075B900C017FF85B960812227889400C036
:1022600000C0002C85B96111630F00C0002C75B946
:1022700000C016FF85B908F46FEF3195889400C04F
:1022800000C0002C85B9E0FC260F00C0002C75B9F9
:1022900000C015FF85B927958894E1FC260F00C082
:1022A00000C0002C85B92795889400C0002C75B912
:1022B00000C014FF85B9E2FC260F2795889400C062
:1022C00000C0002C85B9E3FC260F00C0002C75B9B6
:1022D00000C013FF85B927958894E4FC260F00C041
:1022E00000C0002C85B92795889400C0002C75B9D2
:1022F00000C012FF85B9E5FC260F2795889400C021
:1023000000C0002C85B9E6FC260F00C0002C75B972
:1023100000C011FF85B927958894E7FC260F00C0FF
:1023200000C0002C85B92795889400C0002C75B991
:1023300000C010FF85B9162FE110122F390D00C013
:1023400000C0002C85B900C000C0002C75B900C0C9
:1023500017FF85B962812227889400C000C0002C35
:1023600085B96111640F00C0002C75B900C016FF5B
:1023700085B908F46FEFEB0DF11D00C000C0002C13
:1023800085B9D0FC260F00C0002C75B900C015FF20
:1023900085B927958894D1FC260F00C000C0002C79
:1023A00085B92795889400C0002C75B900C014FF2A
:1023B00085B9D2FC260F2795889400C000C0002C58
:1023C00085B9D3FC260F00C0002C75B900C013FFDF
:1023D00085B927958894D4FC260F00C000C0002C36
:1023E00085B92795889400C0002C75B900C012FFEC
:1023F00085B9D5FC260F2795889400C000C0002C15
:1024000085B9D6FC260F00C0002C75B900C011FF9D
:1024100085B927958894D7FC260F00C000C0002CF2
:1024200085B92795889400C0002C75B900C010FFAD
:1024300085B9162FD110122F419500C000C0002C75
:1024400085B9480D00C000C075B900C017FF85B937
:1024500061812227889400C000C0002C85B96111D9
:10246000690F00C0002C75B900C016FF85B908F4CB
:102470006FEF9195889400C000C0002C85B9F0FCE6
:10248000260F00C0002C75B900C015FF85B927952F
:102490008894F1FC260F00C000C0002C85B9279558
:1024A000889400C0002C75B900C014FF85B9F2FCF7
:1024B000260F2795889400C000C0002C85B9F3FC36
:1024C000260F00C0002C75B900C013FF85B92795F1
:1024D0008894F4FC260F00C000C0002C85B9279515
:1024E000889400C0002C75B900C012FF85B9F5FCB6
:1024F000260F2795889400C000C0002C85B9F6FCF3
:10250000260F00C0002C75B900C011FF85B92795B2
:102510008894F7FC260F00C000C0002C85B92795D1
:10252000889400C0002C75B900C010FF85B9162F23
:10253000F110122F9C0D00C000C0002C85B911971E
:1025400009F086CE20EE31E0D2010E94FE1DDC01B2
:10255000CB01F4E0B695A79597958795FA95D1F7B5
:1025600020E030E0A9016AE9469E040C411D569E18
:10257000400D511D1124450D511D840F951FA11DA6
:10258000B11D893E43E09407A105B10508F434C0AC
:10259000885E9340A109B10942E0B695A795979549
:1025A00087954A95D1F747E0849F080E211D949F97
:1025B000200D311D1124290F311D6091780370E029
:1025C000860F971F820F931F4091C3015091C40142
:1025D0006091C5017091C601292F3327420F531F07
:1025E000611D711D4093C3015093C4016093C501E7
:1025F0007093C6018093780378940E94EA0AF301ED
:10260000708B6787DF91CF911F91FF90EF90DF90E4
:10261000CF90BF909F908F907F906F905F904F90E2
:10262000089580E991E008956E9A08954F925F921F
:102630006F927F928F929F92BF92CF92DF92EF9292
:10264000FF921F93CF93DF933C01EB010F960E9403
:10265000710CF894E881F9817EB170648EB18F7B42
:102660008EB9CA849F812C2D291B922F2F83BF8462
:102670004A805B80FD84EC84DE84F394E394D394FD
:102680003E81488599848B841181D20120E0522FAC
:10269000622F6181112788946111690F08F46FEF2F
:1026A00091958894F0FC160F17958894F1FC160FFD
:1026B00017958894F2FC160F17958894F3FC160F63
:1026C00017958894F4FC160F17958894F5FC160F4F
:1026D00017958894F6FC160F17958894F7FC160F3B
:1026E00017958894262FF110212F9C0D122F002C66
:1026F0007EB900C017FF8EB960812227889400C080
:1027000000C0002C8EB96111630F00C0002C7EB98F
:1027100000C016FF8EB908F46FEF3195889400C0A1
:1027200000C0002C8EB9E0FC260F00C0002C7EB942
:1027300000C015FF8EB927958894E1FC260F00C0D4
:1027400000C0002C8EB92795889400C0002C7EB95B
:1027500000C014FF8EB9E2FC260F2795889400C0B4
:1027600000C0002C8EB9E3FC260F00C0002C7EB9FF
:1027700000C013FF8EB927958894E4FC260F00C093
:1027800000C0002C8EB92795889400C0002C7EB91B
:1027900000C012FF8EB9E5FC260F2795889400C073
:1027A00000C0002C8EB9E6FC260F00C0002C7EB9BC
:1027B00000C011FF8EB927958894E7FC260F00C052
:1027C00000C0002C8EB92795889400C0002C7EB9DB
:1027D00000C010FF8EB9162FE110122F390D00C066
:1027E00000C0002C8EB900C000C0002C7EB900C013
:1027F00017FF8EB962812227889400C000C0002C88
:102800008EB96111640F00C0002C7EB900C016FFA4
:102810008EB908F46FEFEB0DF11D00C000C0002C65
:102820008EB9D0FC260F00C0002C7EB900C015FF69
:102830008EB927958894D1FC260F00C000C0002CCB
:102840008EB92795889400C0002C7EB900C014FF73
:102850008EB9D2FC260F2795889400C000C0002CAA
:102860008EB9D3FC260F00C0002C7EB900C013FF28
:102870008EB927958894D4FC260F00C000C0002C88
:102880008EB92795889400C0002C7EB900C012FF35
:102890008EB9D5FC260F2795889400C000C0002C67
:1028A0008EB9D6FC260F00C0002C7EB900C011FFE7
:1028B0008EB927958894D7FC260F00C000C0002C45
:1028C0008EB92795889400C0002C7EB900C010FFF7
:1028D0008EB9162FD110122F419500C000C0002CC8
:1028E0008EB9480D00C000C07EB900C017FF8EB978
:1028F00061812227889400C000C0002C8EB961112C
:10290000690F00C0002C7EB900C016FF8EB908F414
:102910006FEF9195889400C000C0002C8EB9F0FC38
:10292000260F00C0002C7EB900C015FF8EB9279578
:102930008894F1FC260F00C000C0002C8EB92795AA
:10294000889400C0002C7EB900C014FF8EB9F2FC40
:10295000260F2795889400C000C0002C8EB9F3FC88
:10296000260F00C0002C7EB900C013FF8EB927953A
:102970008894F4FC260F00C000C0002C8EB9279567
:10298000889400C0002C7EB900C012FF8EB9F5FCFF
:10299000260F2795889400C000C0002C8EB9F6FC45
:1029A000260F00C0002C7EB900C011FF8EB92795FC
:1029B0008894F7FC260F00C000C0002C8EB9279524
:1029C000889400C0002C7EB900C010FF8EB9162F6D
:1029D000F110122F9C0D00C000C0002C8EB9119771
:1029E00009F086CE20EE31E0D2010E94FE1DDC010E
:1029F000CB01F4E0B695A79597958795FA95D1F711
:102A000020E030E0A9016AE9469E040C411D569E73
:102A1000400D511D1124450D511D840F951FA11D01
:102A2000B11D893E43E09407A105B10508F434C007
:102A3000885E9340A109B10942E0B695A7959795A4
:102A400087954A95D1F747E0849F080E211D949FF2
:102A5000200D311D1124290F311D6091780370E084
:102A6000860F971F820F931F4091C3015091C4019D
:102A70006091C5017091C601292F3327420F531F62
:102A8000611D711D4093C3015093C4016093C50142
:102A90007093C6018093780378940E94EA0AF30148
:102AA000708B6787DF91CF911F91FF90EF90DF9040
:102AB000CF90BF909F908F907F906F905F904F903E
:102AC000089580E991E00895579A08954F925F9292
:102AD0006F927F928F929F92BF92CF92DF92EF92EE
:102AE000FF921F93CF93DF933C01EB010F960E945F
:102AF000710CF894E881F9817BB170688BB18F77A4
:102B00008BB9CA849F812C2D291B922F2F83BF84C0
:102B10004A805B80FD84EC84DE84F394E394D39458
:102B20003E81488599848B841181D20120E0522F07
:102B3000622F6181112788946111690F08F46FEF8A
:102B400091958894F0FC160F17958894F1FC160F58
:102B500017958894F2FC160F17958894F3FC160FBE
:102B600017958894F4FC160F17958894F5FC160FAA
:102B700017958894F6FC160F17958894F7FC160F96
:102B800017958894262FF110212F9C0D122F002CC1
:102B90007BB900C017FF8BB960812227889400C0E1
:102BA00000C0002C8BB96111630F00C0002C7BB9F1
:102BB00000C016FF8BB908F46FEF3195889400C000
:102BC00000C0002C8BB9E0FC260F00C0002C7BB9A4
:102BD00000C015FF8BB927958894E1FC260F00C033
:102BE00000C0002C8BB92795889400C0002C7BB9BD
:102BF00000C014FF8BB9E2FC260F2795889400C013
:102C000000C0002C8BB9E3FC260F00C0002C7BB960
:102C100000C013FF8BB927958894E4FC260F00C0F1
:102C200000C0002C8BB92795889400C0002C7BB97C
:102C300000C012FF8BB9E5FC260F2795889400C0D1
:102C400000C0002C8BB9E6FC260F00C0002C7BB91D
:102C500000C011FF8BB927958894E7FC260F00C0B0
:102C600000C0002C8BB92795889400C0002C7BB93C
:102C700000C010FF8BB9162FE110122F390D00C0C4
:102C800000C0002C8BB900C000C0002C7BB900C074
:102C900017FF8BB962812227889400C000C0002CE6
:102CA0008BB96111640F00C0002C7BB900C016FF06
:102CB0008BB908F46FEFEB0DF11D00C000C0002CC4
:102CC0008BB9D0FC260F00C0002C7BB900C015FFCB
:102CD0008BB927958894D1FC260F00C000C0002C2A
:102CE0008BB92795889400C0002C7BB900C014FFD5
:102CF0008BB9D2FC260F2795889400C000C0002C09
:102D00008BB9D3FC260F00C0002C7BB900C013FF89
:102D10008BB927958894D4FC260F00C000C0002CE6
:102D20008BB92795889400C0002C7BB900C012FF96
:102D30008BB9D5FC260F2795889400C000C0002CC5
:102D40008BB9D6FC260F00C0002C7BB900C011FF48
:102D50008BB927958894D7FC260F00C000C0002CA3
:102D60008BB92795889400C0002C7BB900C010FF58
:102D70008BB9162FD110122F419500C000C0002C26
:102D80008BB9480D00C000C07BB900C017FF8BB9DC
:102D900061812227889400C000C0002C8BB961118A
:102DA000690F00C0002C7BB900C016FF8BB908F476
:102DB0006FEF9195889400C000C0002C8BB9F0FC97
:102DC000260F00C0002C7BB900C015FF8BB92795DA
:102DD0008894F1FC260F00C000C0002C8BB9279509
:102DE000889400C0002C7BB900C014FF8BB9F2FCA2
:102DF000260F2795889400C000C0002C8BB9F3FCE7
:102E0000260F00C0002C7BB900C013FF8BB927959B
:102E10008894F4FC260F00C000C0002C8BB92795C5
:102E2000889400C0002C7BB900C012FF8BB9F5FC60
:102E3000260F2795889400C000C0002C8BB9F6FCA3
:102E4000260F00C0002C7BB900C011FF8BB927955D
:102E50008894F7FC260F00C000C0002C8BB9279582
:102E6000889400C0002C7BB900C010FF8BB9162FCE
:102E7000F110122F9C0D00C000C0002C8BB91197CF
:102E800009F086CE20EE31E0D2010E94FE1DDC0169
:102E9000CB01F4E0B695A79597958795FA95D1F76C
:102EA00020E030E0A9016AE9469E040C411D569ECF
:102EB000400D511D1124450D511D840F951FA11D5D
:102EC000B11D893E43E09407A105B10508F434C063
:102ED000885E9340A109B10942E0B695A795979500
:102EE00087954A95D1F747E0849F080E211D949F4E
:102EF000200D311D1124290F311D6091780370E0E0
:102F0000860F971F820F931F4091C3015091C401F8
:102F10006091C5017091C601292F3327420F531FBD
:102F2000611D711D4093C3015093C4016093C5019D
:102F30007093C6018093780378940E94EA0AF301A3
:102F4000708B6787DF91CF911F91FF90EF90DF909B
:102F5000CF90BF909F908F907F906F905F904F9099
:102F6000089580E991E00895269A08954F925F921E
:102F70006F927F928F929F92BF92CF92DF92EF9249
:102F8000FF921F93CF93DF933C01EB010F960E94BA
:102F9000710CF894E881F98175B1706485B18F7B0B
:102FA00085B9CA849F812C2D291B922F2F83BF8422
:102FB0004A805B80FD84EC84DE84F394E394D394B4
:102FC0003E81488599848B841181D20120E0522F63
:102FD000622F6181112788946111690F08F46FEFE6
:102FE00091958894F0FC160F17958894F1FC160FB4
:102FF00017958894F2FC160F17958894F3FC160F1A
:1030000017958894F4FC160F17958894F5FC160F05
:1030100017958894F6FC160F17958894F7FC160FF1
:1030200017958894262FF110212F9C0D122F002C1C
:1030300075B900C017FF85B960812227889400C048
:1030400000C0002C85B96111630F00C0002C75B958
:1030500000C016FF85B908F46FEF3195889400C061
:1030600000C0002C85B9E0FC260F00C0002C75B90B
:1030700000C015FF85B927958894E1FC260F00C094
:1030800000C0002C85B92795889400C0002C75B924
:1030900000C014FF85B9E2FC260F2795889400C074
:1030A00000C0002C85B9E3FC260F00C0002C75B9C8
:1030B00000C013FF85B927958894E4FC260F00C053
:1030C00000C0002C85B92795889400C0002C75B9E4
:1030D00000C012FF85B9E5FC260F2795889400C033
:1030E00000C0002C85B9E6FC260F00C0002C75B985
:1030F00000C011FF85B927958894E7FC260F00C012
:1031000000C0002C85B92795889400C0002C75B9A3
:1031100000C010FF85B9162FE110122F390D00C025
:1031200000C0002C85B900C000C0002C75B900C0DB
:1031300017FF85B962812227889400C000C0002C47
:1031400085B96111640F00C0002C75B900C016FF6D
:1031500085B908F46FEFEB0DF11D00C000C0002C25
:1031600085B9D0FC260F00C0002C75B900C015FF32
:1031700085B927958894D1FC260F00C000C0002C8B
:1031800085B92795889400C0002C75B900C014FF3C
:1031900085B9D2FC260F2795889400C000C0002C6A
:1031A00085B9D3FC260F00C0002C75B900C013FFF1
:1031B00085B927958894D4FC260F00C000C0002C48
:1031C00085B92795889400C0002C75B900C012FFFE
:1031D00085B9D5FC260F2795889400C000C0002C27
:1031E00085B9D6FC260F00C0002C75B900C011FFB0
:1031F00085B927958894D7FC260F00C000C0002C05
:1032000085B92795889400C0002C75B900C010FFBF
:1032100085B9162FD110122F419500C000C0002C87
:1032200085B9480D00C000C075B900C017FF85B949
:1032300061812227889400C000C0002C85B96111EB
:10324000690F00C0002C75B900C016FF85B908F4DD
:103250006FEF9195889400C000C0002C85B9F0FCF8
:10326000260F00C0002C75B900C015FF85B9279541
:103270008894F1FC260F00C000C0002C85B927956A
:10328000889400C0002C75B900C014FF85B9F2FC09
:10329000260F2795889400C000C0002C85B9F3FC48
:1032A000260F00C0002C75B900C013FF85B9279503
:1032B0008894F4FC260F00C000C0002C85B9279527
:1032C000889400C0002C75B900C012FF85B9F5FCC8
:1032D000260F2795889400C000C0002C85B9F6FC05
:1032E000260F00C0002C75B900C011FF85B92795C5
:1032F0008894F7FC260F00C000C0002C85B92795E4
:10330000889400C0002C75B900C010FF85B9162F35
:10331000F110122F9C0D00C000C0002C85B9119730
:1033200009F086CE20EE31E0D2010E94FE1DDC01C4
:10333000CB01F4E0B695A79597958795FA95D1F7C7
:1033400020E030E0A9016AE9469E040C411D569E2A
:10335000400D511D1124450D511D840F951FA11DB8
:10336000B11D893E43E09407A105B10508F434C0BE
:10337000885E9340A109B10942E0B695A79597955B
:1033800087954A95D1F747E0849F080E211D949FA9
:10339000200D311D1124290F311D6091780370E03B
:1033A000860F971F820F931F4091C3015091C40154
:1033B0006091C5017091C601292F3327420F531F19
:1033C000611D711D4093C3015093C4016093C501F9
:1033D0007093C6018093780378940E94EA0AF301FF
:1033E000708B6787DF91CF911F91FF90EF90DF90F7
:1033F000CF90BF909F908F907F906F905F904F90F5
:103400000895E8E2F3E01382128288EE93E0A0E0F0
:10341000B0E084839583A683B78389EA91E09183A2
:1034200080838FEF9FEF95878487EDE5F2E08083BF
:1034300012821182148613868FEF9FEFDC0187833F
:103440009087A187B2870895CF93DF93CDB7DEB77A
:10345000A1970FB6F894DEBF0FBECDBF789484B5A8
:10346000826084BD84B5816084BD85B5826085BD80
:1034700085B5816085BD80916E00816080936E000E
:103480001092810080918100826080938100809100
:1034900081008160809381008091800081608093B1
:1034A00080008091910082608093910080919100D2
:1034B0008160809391008091900081608093900062
:1034C0008091C10084608093C1008091C1008260BE
:1034D0008093C1008091C10081608093C100809180
:1034E000C30081608093C3008091C000826080939C
:1034F000C0008091C20081608093C20080917A00F8
:10350000846080937A0080917A00826080937A0050
:1035100080917A00816080937A0080917A0080683F
:1035200080937A0010925A021092D4011092D30123
:103530008091D70081608093D70080EA8093D80083
:1035400089B5806189BD89B5826089BD09B400FEF5
:10355000FDCF61E070E080E090E00E940F0B809171
:10356000D8008F7C80618093D8008091E000807FBC
:103570008093E0008091E1008E7E8093E1008DE0F9
:103580008093E200559A209A5D982898EEEFFFE725
:10359000859194918B3F9C4D19F481E08093D201E9
:1035A0008FEF9FEF909335038093340382E00E9466
:1035B000800C83E00E94800C109207031092050398
:1035C000109211031092060310920103109204034B
:1035D000109202031092000310920303E9E6F1E057
:1035E000E49180917B00E3FB002700F910E055E0B7
:1035F000000F111F5A95E1F78F7D082B00937B0078
:10360000E770E064E0937C0080917A0080648093AE
:103610007A0080917A0086FDFCCF609178008091DD
:10362000790070E0782B072E000C880B990B611540
:1036300071058105910511F00E94681D10920A0321
:1036400084E195E090930C0380930B0310920D039B
:1036500010920E0310920F031092100386E98093CC
:10366000DA011092D9011092D8011092D7018093FB
:10367000D6018093D50180917B02811111C08AE629
:1036800092E00E94330410927A02109279028DE344
:1036900091E090936B0280936A0281E080937B02B9
:1036A0006BED71E08AE692E00E94A80C8091940292
:1036B000811111C083E892E00E94330410929302BA
:1036C000109292028FE491E090938402809383029F
:1036D00081E08093940260EF71E083E892E00E94C1
:1036E000A80C8091AD02811111C08CE992E00E947A
:1036F00033041092AC021092AB0281E691E09093F9
:103700009D0280939C0281E08093AD0265E072E0AF
:103710008CE992E00E94A80C8091C602811111C030
:1037200085EB92E00E9433041092C5021092C4020D
:1037300083E791E09093B6028093B50281E0809395
:10374000C6026AE172E085EB92E00E94A80C8091CB
:10375000DF02811111C08EEC92E00E9433041092BE
:10376000DE021092DD0285E891E09093CF02809313
:10377000CE0281E08093DF026FE272E08EEC92E095
:103780000E94A80C8091F802811111C087EE92E08E
:103790000E9433041092F7021092F60287E991E03A
:1037A0009093E8028093E70281E08093F80264E45A
:1037B00072E087EE92E00E94A80C11E02AE0422E0F
:1037C000512C612C712C3CE4A32E34E0B32E40EB41
:1037D000842E44E0942E05E095E1392E10920603E4
:1037E00010920403109202031092030382E00E94DD
:1037F0008A0A019711F40E94370682E00E948A0A21
:10380000FF24F394892B09F0F12CF092090383E053
:103810000E948A0A21E0892B09F020E02093080306
:10382000809101038F1539F0882319F01093040358
:1038300002C01093060380910003821739F0882399
:1038400019F01093030302C010930203F0920103D6
:1038500020930003F11002C0222379F08091070326
:1038600081110BC01093070380910603882319F080
:103870001093050302C0109205038091070388236B
:1038800039F1F11025C0211123C0909104038091DA
:103890001103992359F090910503911107C08530C8
:1038A00019F41092110312C08F5F0EC090910303A0
:1038B000992361F090910503992341F0811103C090
:1038C0000093110303C081508093110310920703EA
:1038D0002091110330E040E050E019A2CE01819622
:1038E0007C01CA01B901A30192010E94A31D605D80
:1038F000F70162937F01211531054105510589F7D3
:10390000CF010E94EE0C87EB91E00E94EE0C0E942A
:10391000CE0B20910D0330910E0340910F03509177
:1039200010036B017C01C21AD30AE40AF50A8091E4
:103930000B0390910C03092E000CAA0BBB0BC816AD
:10394000D906EA06FB0608F458C00E94CE0B609325
:103950000D0370930E0380930F039093100380E088
:1039600090E0FC01E151FE4F26E0DF0115973C910C
:1039700013963C9312973C9113963C9312973C916B
:1039800030832150FD0189F745968E37910549F71F
:1039900080910A03882329F10E94CE0B613177427E
:1039A0008105910510F481E01DC00E94CE0B6133AA
:1039B00075478105910530F490920C0380920B03BA
:1039C00082E010C00E94CE0B6133754781059105DE
:1039D00058F083E00E946404B0920C03A0920B03A1
:1039E00003C080E00E94640480910A0381278093D1
:1039F0000A0380915D020E94060DE09111033E9E34
:103A0000F0011124E552FE4F92898091DA0198135A
:103A100002C00E94370680E0C82E80E0D82ECD2854
:103A200009F4DCCE0E940000D6CE8F929F92AF9216
:103A3000BF92CF92DF92EF92FF92CF93DF93EC0190
:103A4000688179818A819B81611571058105910564
:103A500021F464E279ED8BE597E02DE133EF41E06D
:103A600050E00E94711D49015A019B01AC01A7EA77
:103A7000B1E40E94901D6B017C01ACEEB4EFA50196
:103A800094010E949E1DDC01CB018C0D9D1DAE1D7D
:103A9000BF1DB7FF03C00197A109B0488883998370
:103AA000AA83BB83BC01CD019F77DF91CF91FF90AB
:103AB000EF90DF90CF90BF90AF909F908F90089540
:103AC0000E94151D08958CE091E00E94151D089537
:103AD00060930C0170930D0180930E0190930F0180
:103AE0000895052E97FB1EF400940E94881D57FD33
:103AF00007D00E94A31D07FC03D04EF40C94881D30
:103B000050954095309521953F4F4F4F5F4F089509
:103B100090958095709561957F4F8F4F9F4F089539
:103B20000E94C51DA59F900DB49F900DA49F800D70
:103B3000911D11240895B7FF0C94901D0E94901DB3
:103B4000821B930B0895A1E21A2EAA1BBB1BFD0139
:103B50000DC0AA1FBB1FEE1FFF1FA217B307E4076C
:103B6000F50720F0A21BB30BE40BF50B661F771FC4
:103B7000881F991F1A9469F76095709580959095A4
:103B80009B01AC01BD01CF010895A29FB001B39F7D
:103B9000C001A39F700D811D1124911DB29F700D56
:103BA000811D1124911D0895DB018F939F930E9425
:103BB000901DBF91AF91A29F800D911DA39F900D6D
:103BC000B29F900D1124089597FB072E16F40094D0
:103BD00007D077FD09D00E94051E07FC05D03EF4F2
:103BE000909581959F4F0895709561957F4F0895A9
:103BF000EE0FFF1F0590F491E02D09940E94C51D62
:103C0000B7FF0895821B930B0895AA1BBB1B51E1BC
:103C100007C0AA1FBB1FA617B70710F0A61BB70B3C
:103C2000881F991F5A95A9F780959095BC01CD01E1
:103C3000089581E090E0F8940C941E1EF894FFCF54
:103C4000FFFFFFFF00E10000000000000100000096
:103C5000000000006E076E076E071F011B011801B0
:103C600000000000D2038E036E071F011B01180124
:103C70006E0700C1808100000000000000D2038EAA
:103C800003B4171F011B01B117B61700000000D2C3
:103C9000038E03740E1F011B01710E760E000000CF
:103CA00000D2038E03C4101F011B01C110C61000F7
:103CB000000000D2038E0314131F011B0111131601
:103CC0001300000000D2038E0364151F011B016165
:103CD00015661500000000D2038E0316011F011B9C
:103CE0000113014301000000002F07490BA2074503
:0A3CF000075007A607C4070D0A00DD
:2070000055C000006EC000006CC000006AC0000068C0000066C0000064C0000062C0000043
:2070200060C000005EC00000F2C400005AC0000058C0000056C0000054C0000052C00000EE
:2070400050C0000078C000004CC000004AC0000048C0000046C0000044C0000042C00000BE
:2070600040C000003EC000003CC000003AC0000038C0000036C0000034C0000032C0000048
:2070800030C000002EC000002CC000002AC0000028C0000026C0000024C0000022C00000A8
:2070A00020C000001EC000001CC0000011241FBECFEFDAE0DEBFCDBF11E0A0E0B1E0E2E3BC
:2070C000FFE702C005900D92A83AB107D9F711E0A8EAB1E001C01D92AE3BB107E1F78FD30B
:2070E00026C78ECFF89410926F0010928100109285001092840081E085BF15BE47985D98ED
:2071000028980C94000008952091B2013091B3012F5F3F4F3093B3012093B201932F37FFA8
:2071200003C08EEF831B982F990F921710F447980895479A08951F920F920FB60F9211246E
:207140002F938F939F93EF93FF9310928500109284008091A8019091A901009741F00197D3
:207160009093A9018093A801892B09F45D988091AA019091AB01009741F001979093AB0128
:207180008093AA01892B09F42898E0E0F0E0859194918F5F9F4F49F08091AC019091AD0153
:2071A00001969093AD018093AC01FF91EF919F918F912F910F900FBE0F901F90189584E0BC
:2071C0008093E9000DC08091E8008B778093E80003C08EB3882351F08091E80082FFF9CFBE
:2071E0008091E80085FFEFCF8091F1000895982F83E08093E9008091E80085FD0DC0809136
:20720000E8008E778093E80003C08EB3882369F08091E80080FFF9CF9093F1005D9A84E6C9
:2072200090E09093A9018093A80108954F925F926F927F928F929F92AF92BF92CF92DF921E
:20724000EF92FF920F931F93CF93DF9384E08093E9008091E80082FF57C2289A84E690E065
:207260009093AB018093AA01AADF182F853481F48CE49DE19093AD018093AC0107B600FC4B
:20728000FDCFF999FECF81E180935700E89503C0843519F494DF8DE00DC28C34E1F38035F9
:2072A000D1F3843721F484E4A2DF80E003C2813611F489E5FFC18134B1F481DF182F7FDFE3
:2072C00090E0880F991FAA2797FDA095BA2F312F330F20E0442737FD4095542F822B932B68
:2072E000A42BB52BB8C1803711F483E5E3C1833549F4C0E0D1E089917ADF21E0C730D20714
:20730000D1F7D9C1863521F481E371DF80E3D2C1833731F487E86BDF85E969DF8EE1CAC149
:207320008536B9F4E0E0F0E093E085E090935700E89507B600FCFDCF80935700E89507B65D
:2073400000FCFDCFE058FF4FA0E7E030FA0771F7A2CF823739F4E1E0F0E089E08093570024
:207360008491A8C1863439F4E0E0F0E089E08093570084919FC18E3439F4E3E0F0E089E0E5
:2073800080935700849196C1813539F4E2E0F0E089E08093570084918DC1823631F489E521
:2073A00026DF80E024DF80E885C1823419F0873609F0E5C01092AD011092AC0100DF082FE8
:2073C000FEDEF82EFCDE682E8554823008F071C1902F80E0CF2DD0E0C82BD92B10926F00B3
:2073E000173609F04BC081E180935700E895DD24CC24C3943FC0E090AE01F090AF010091CC
:20740000B0011091B101B6E46B16D9F4ED2DF0E0EE29FF29E4918E2FEADEDD2081F082E08D
:2074200090E0A0E0B0E0E80EF91E0A1F1B1FE092AE01F092AF010093B0011093B101DC2470
:2074400018C0D801C701B695A7959795879559D5CEDE82E090E0A0E0B0E0E80EF91E0A1FF2
:207460001B1FE092AE01F092AF010093B0011093B1012197209709F0BECF7DC08090AE01F5
:207480009090AF01A090B001B090B10196E4691609F05DC083E0F40180935700E89507B63E
:2074A00000FCFDCF54C0F6E46F1661F5772031F1E090AE01F090AF010091B0011091B1019E
:2074C0007EDED82ECC24852D90E08C299D29F7010C0140925700E895112482E090E0A0E08B
:2074E000B0E0E80EF91E0A1F1B1FE092AE01F092AF010093B0011093B10102C060DE582E1A
:20750000742423C0E090AE01F090AF010091B0011091B10116950795F794E79450DE682FFA
:20752000C701F7D48091AE019091AF01A091B001B091B1010296A11DB11D8093AE01909349
:20754000AF01A093B001B093B101219704C05524772444244394209709F0A5CF96E46916B6
:2075600041F485E0F40180935700E89507B600FCFDCF8DE03CDE82E080936F009CC0833492
:2075800071F40091AE011091AF0119DE90E021E0F8010C0120935700E89511247CCE8336C8
:2075A00019F5E090AE01F090AF010091B0011091B10105DEF701E16090E021E00C0120938C
:2075C0005700E895112482E090E0A0E0B0E0E80EF91E0A1F1B1FE092AE01F092AF0100936A
:2075E000B0011093B10157CE8D3661F4E091AE01F091AF0185E080935700E89507B600FCF2
:20760000FDCF49CE823551F4E091AE01F091AF0105911491812FEBDD802F4CC0843421F5FE
:20762000E090AE01F090AF010091B0011091B10116950795F794E794C2DD682FC70169D4DE
:207640008091AE019091AF01A091B001B091B1010296A11DB11D8093AE019093AF01A093D8
:20766000B001B093B10117CE843609F5E090AE01F090AF010091B0011091B101D801C70142
:20768000B695A795979587953CD4B1DD82E090E0A0E0B0E0E80EF91E0A1F1B1FE092AE010A
:2076A000F092AF010093B0011093B10104C08B3111F08FE39CDD83E08093E9009091E8002B
:2076C0008091E8008E778093E80095FF04C010C08EB38823C9F08091E80080FFF9CF809193
:2076E000E8008E778093E80003C08EB3882361F08091E80080FFF9CF84E08093E9008091F1
:20770000E8008B778093E800DF91CF911F910F91FF90EF90DF90CF90BF90AF909F908F90AC
:207720007F906F905F904F9008959091B601892F8F77813249F58091B7018032A1F081328A
:2077400019F5913A09F58091E800877F8093E8008DE091E067E070E00BD28091E8008B770B
:207760008093E8000895913279F48091E800877F8093E8008DE091E067E070E05DD2809192
:20778000E8008E778093E800089582E061EC42E0B5D083E061E842E1B1D084E060E842E1EF
:2077A000ADC084B7877F84BF88E10FB6F89480936000109260000FBE20E880E090E00FB63F
:2077C000F89420936100809361000FBE81E085BF92E095BF3F9A209A559AE1E6F0E02083A1
:2077E000108247985D982898109289008AEF8093880090936F0083E080938100F0C040911A
:20780000000850910108109201081092000894B714BE88E10FB6F8948093600010926000D5
:207820000FBE292F30E0F901E270F07091FD18C090FF05C0859194918F5F9F4F81F423FFFF
:207840000FC08091090190910A014817590741F0E0E0F0E0859194918F5F9F4F09F042DC64
:20786000A0DF78941092AD011092AC010CC0DEDC36D38091AC019091AD0181549F4110F00D
:207880001092140141DC80911401882381F78091E00081608093E00025DC80E090E0089598
:2078A000FA01923049F0933061F09130F9F485E191E022E130E01EC087E291E02EE330E04D
:2078C00019C0882329F485E691E024E030E012C0813029F489E691E022E230E00BC0823006
:2078E00029F48DE891E028E130E004C080E090E020E030E091838083C90108958093E9004E
:207900008091EB0081608093EB001092ED006093EC004093ED008091EE00881F8827881F62
:2079200008958091B60188238CF403C08EB38823B1F08091E80082FFF9CF8091E8008B772A
:207940008093E80008958EB3882349F08091E80080FFF9CF8091E8008E778093E800089594
:20796000EF92FF920F931F9345D04CD008ED10E0F80180818F77808380818068808380819B
:207980008F7D808319BC1EBA1092B40180EEE82EF12CF70180818B7F8083F8018081816052
:2079A000808380E060E042E0A9DFE1EEF0E080818E7F8083E2EEF0E0808181608083808144
:2079C00088608083F70180818E7F8083F8018081806180831F910F91FF90EF900895E7ED06
:2079E000F0E08081816080838AE482BF81E08093B501B6CFE8EDF0E080818E7F808310921C
:207A0000E20008951092DA001092E10008951F920F920FB60F9211242F933F934F935F93F6
:207A20006F937F938F939F93AF93BF93EF93FF938091DA0080FF1BC08091D80080FF17C0B2
:207A40008091DA008E7F8093DA008091D90080FF0BC080E189BD82E189BD09B400FEFDCF36
:207A600081E08EBB3BD203C019BC1EBA37D28091E10080FF17C08091E20080FF13C0809138
:207A8000E2008E7F8093E2008091E20080618093E2008091D80080628093D80019BC85E049
:207AA0008EBB1CD28091E10084FF2CC08091E20084FF28C080E189BD82E189BD09B400FEC5
:207AC000FDCF8091D8008F7D8093D8008091E1008F7E8093E1008091E2008F7E8093E20012
:207AE0008091E20081608093E2008091B401882331F48091E30087FD02C081E001C084E067
:207B00008EBBECD18091E10083FF21C08091E20083FF1DC08091E100877F8093E10082E06A
:207B20008EBB1092B4018091E1008E7F8093E1008091E2008E7F8093E2008091E2008061E9
:207B40008093E20080E060E042E0D8DEC7D1FF91EF91BF91AF919F918F917F916F915F9130
:207B60004F913F912F910F900FBE0F901F9018959C014091BC015091BD014617570718F49D
:207B8000F90190E044C06115710511F0AB01F8CF8091E8008E778093E80040E050E0F0CF0F
:207BA0008EB3882309F444C0853009F443C08091E80083FF02C081E008958091E80082FD70
:207BC00031C08091E80080FF22C08091F3009091F200782F60E0292F30E0262B372B07C07A
:207BE00081918093F100415050402F5F3F4F4115510519F02830310598F390E02830310566
:207C000009F491E08091E8008E778093E8004115510531F6992321F605C08EB3882341F075
:207C2000853041F08091E80082FFF7CF80E0089582E0089583E008959C016115710529F47C
:207C40008091E8008B778093E800F90126C08EB3882391F1853091F18091E80083FF02C06C
:207C600081E008958091E80082FFF1CF06C08091F10081936150704059F02091F300809191
:207C8000F200322F20E090E0822B932B892B79F78091E8008B778093E80061157105B9F601
:207CA00005C08EB3882341F0853041F08091E80080FFF7CF80E0089582E0089583E00895C2
:207CC0000F931F93DF93CF9300D0CDB7DEB7E6EBF1E08091F100819381E0EE3BF807C9F792
:207CE00024DD8091E80083FFE4C08091B6019091B701953009F46DC0963040F4913081F1A7
:207D0000913070F0933009F0D4C02AC0983009F4A3C0993009F4B2C0963009F0CAC07CC023
:207D2000803809F4C6C0823809F0C3C08091BA0187708093E9008091EB001092E9002091DB
:207D4000E800277F2093E80090E025E0969587952A95E1F781708093F1001092F10087C0D8
:207D6000882319F0823009F0A4C08F71823009F0A0C08091B801882331F52091BA01277097
:207D800009F497C02093E9008091EB0080FF1BC0933021F48091EB00806213C08091EB0018
:207DA00080618093EB0081E090E002C0880F991F2A95E2F78093EA001092EA008091EB00E5
:207DC00088608093EB001092E9008091E800877F51C0882309F06DC01091B8011F770FB79B
:207DE000F8948091E800877F8093E8009ADD8091E80080FFFCCF8091E3008078812B809398
:207E0000E30080688093E300112311F482E001C083E08EBB0FBF4DC08058823008F049C033
:207E20008091B8019091B9016091BA01AE014F5F5F4F36DDBC01009709F43BC08091E8008E
:207E4000877F8093E80089819A8192DE8091E8008B778093E8002DC0803859F58091E800AA
:207E6000877F8093E8008091B4018093F1008091E8008E778093E80054DD1BC08823C9F4CA
:207E80009091B8019230A8F48091E800877F8093E8009093B40145DD8091B401882331F420
:207EA0008091E30087FD02C081E001C084E08EBB6CDC8091E80083FF0AC08091EB0080624E
:207EC0008093EB008091E800877F8093E8000F900F90CF91DF911F910F91089508951F9360
:207EE0008EB3882361F01091E9001092E9008091E80083FF01C0E4DE17701093E9001F916F
:207F00000895F999FECF92BD81BDF89A992780B50895262FF999FECF1FBA92BD81BD20BDBD
:207F20000FB6F894FA9AF99A0FBE01960895F894FFCF4341544552494E4100777700080031
:207F40000000000000080112011001020000084123370001000201000109023E00020100FE
:207F600080320904000001020201000524001001042402040524060001070582030800FF0C
:207F800009040100020A000000070504021000010705830210000104030904220341007216
:207FA000006400750069006E006F0020004D006900630072006F0020002000200000001810
:1A7FC00003410072006400750069006E006F0020004C004C004300000000D7
:00000001FF
